{
  "transactions": [
    {
      "hash": "0xf31dda3a317990691b364bb17f18f8a32fb7bd11104e4ced3ee15d684e264a59",
      "transactionType": "CALL",
      "contractName": null,
      "contractAddress": "0xd5D0F272F4477C8c82B3f507852e8C17F3BcEaDC",
      "function": "diamondCut((address,uint8,bytes4[])[],address,bytes)",
      "arguments": [
        "[(0x943bDD9e258f9fcd98b64D38486E9b18b6E6EFE0, 0, [0xcdffacc6, 0x52ef6b2c, 0xadfca15e, 0x7a0ed627, 0x01ffc9a7]), (0xF73F182e06E98d87958d2cBB2c5552dA3773bCb1, 0, [0x8da5cb5b, 0xf2fde38b]), (0x2Ca27701436972e066D747D9D3e4e4DeB94b79e8, 0, [0x63ffe7e3, 0x32246e9f, 0xb865cc20, 0xf7aa1b4e, 0x7a935370, 0x2e1a7d4d])]",
        "0x0000000000000000000000000000000000000000",
        "0x"
      ],
      "rpc": "http://localhost:8545",
      "transaction": {
        "type": "0x02",
        "from": "0x07456eab9e565aca6afbcadb9b3b6e77df751e8e",
        "to": "0xd5d0f272f4477c8c82b3f507852e8c17f3bceadc",
        "gas": "0xe5223",
        "value": "0x0",
        "data": "0x1f931c1c0000000000000000000000000000000000000000000000000000000000000060000000000000000000000000000000000000000000000000000000000000000000000000000000000000000000000000000000000000000000000000000004000000000000000000000000000000000000000000000000000000000000000003000000000000000000000000000000000000000000000000000000000000006000000000000000000000000000000000000000000000000000000000000001800000000000000000000000000000000000000000000000000000000000000240000000000000000000000000943bdd9e258f9fcd98b64d38486e9b18b6e6efe0000000000000000000000000000000000000000000000000000000000000000000000000000000000000000000000000000000000000000000000000000000600000000000000000000000000000000000000000000000000000000000000005cdffacc60000000000000000000000000000000000000000000000000000000052ef6b2c00000000000000000000000000000000000000000000000000000000adfca15e000000000000000000000000000000000000000000000000000000007a0ed6270000000000000000000000000000000000000000000000000000000001ffc9a700000000000000000000000000000000000000000000000000000000000000000000000000000000f73f182e06e98d87958d2cbb2c5552da3773bcb10000000000000000000000000000000000000000000000000000000000000000000000000000000000000000000000000000000000000000000000000000006000000000000000000000000000000000000000000000000000000000000000028da5cb5b00000000000000000000000000000000000000000000000000000000f2fde38b000000000000000000000000000000000000000000000000000000000000000000000000000000002ca27701436972e066d747d9d3e4e4deb94b79e800000000000000000000000000000000000000000000000000000000000000000000000000000000000000000000000000000000000000000000000000000060000000000000000000000000000000000000000000000000000000000000000663ffe7e30000000000000000000000000000000000000000000000000000000032246e9f00000000000000000000000000000000000000000000000000000000b865cc2000000000000000000000000000000000000000000000000000000000f7aa1b4e000000000000000000000000000000000000000000000000000000007a935370000000000000000000000000000000000000000000000000000000002e1a7d4d000000000000000000000000000000000000000000000000000000000000000000000000000000000000000000000000000000000000000000000000",
        "nonce": "0x7",
        "accessList": []
      },
      "additionalContracts": [],
      "isFixedGasLimit": false
    }
  ],
  "receipts": [
    {
      "transactionHash": "0xf31dda3a317990691b364bb17f18f8a32fb7bd11104e4ced3ee15d684e264a59",
      "transactionIndex": "0x0",
      "blockHash": "0x6310faa7a581904203a7a03b76d806275d1f462db31aa01995bb3aa56a5cd04f",
      "blockNumber": "0x30275b",
      "from": "0x07456EaB9e565acA6AfBCADB9b3B6E77Df751E8e",
      "to": "0xd5D0F272F4477C8c82B3f507852e8C17F3BcEaDC",
      "cumulativeGasUsed": "0x9cac3",
      "gasUsed": "0x9cac3",
      "contractAddress": null,
      "logs": [
        {
          "address": "0xd5D0F272F4477C8c82B3f507852e8C17F3BcEaDC",
          "topics": [
            "0x8faa70878671ccd212d20771b795c50af8fd3ff6cf27f4bde57e5d4de0aeb673"
          ],
          "data": "0x0000000000000000000000000000000000000000000000000000000000000060000000000000000000000000000000000000000000000000000000000000000000000000000000000000000000000000000000000000000000000000000004000000000000000000000000000000000000000000000000000000000000000003000000000000000000000000000000000000000000000000000000000000006000000000000000000000000000000000000000000000000000000000000001800000000000000000000000000000000000000000000000000000000000000240000000000000000000000000943bdd9e258f9fcd98b64d38486e9b18b6e6efe0000000000000000000000000000000000000000000000000000000000000000000000000000000000000000000000000000000000000000000000000000000600000000000000000000000000000000000000000000000000000000000000005cdffacc60000000000000000000000000000000000000000000000000000000052ef6b2c00000000000000000000000000000000000000000000000000000000adfca15e000000000000000000000000000000000000000000000000000000007a0ed6270000000000000000000000000000000000000000000000000000000001ffc9a700000000000000000000000000000000000000000000000000000000000000000000000000000000f73f182e06e98d87958d2cbb2c5552da3773bcb10000000000000000000000000000000000000000000000000000000000000000000000000000000000000000000000000000000000000000000000000000006000000000000000000000000000000000000000000000000000000000000000028da5cb5b00000000000000000000000000000000000000000000000000000000f2fde38b000000000000000000000000000000000000000000000000000000000000000000000000000000002ca27701436972e066d747d9d3e4e4deb94b79e800000000000000000000000000000000000000000000000000000000000000000000000000000000000000000000000000000000000000000000000000000060000000000000000000000000000000000000000000000000000000000000000663ffe7e30000000000000000000000000000000000000000000000000000000032246e9f00000000000000000000000000000000000000000000000000000000b865cc2000000000000000000000000000000000000000000000000000000000f7aa1b4e000000000000000000000000000000000000000000000000000000007a935370000000000000000000000000000000000000000000000000000000002e1a7d4d000000000000000000000000000000000000000000000000000000000000000000000000000000000000000000000000000000000000000000000000",
          "blockHash": "0x6310faa7a581904203a7a03b76d806275d1f462db31aa01995bb3aa56a5cd04f",
          "blockNumber": "0x30275b",
          "transactionHash": "0xf31dda3a317990691b364bb17f18f8a32fb7bd11104e4ced3ee15d684e264a59",
          "transactionIndex": "0x0",
          "logIndex": "0x0",
          "transactionLogIndex": "0x0",
          "removed": false
        }
      ],
      "status": "0x1",
      "logsBloom": "0x00000000000000400000000000000000000000000000000000000000000000000000000000000000000000000000000000000000000000000000000000000080000000000000000000000000000000000000000001000000000800000000000000000000000000000000000000000000000000000000000000000000000000000020000000000000000000000000000000000000000000000000000000000000000000000000000000000000000000000000000000000000000000000010000000000000000000000000000000000000000000000000000000000000000000000000000000000000000000000000000000000000000000000000000000000000",
      "type": "0x2",
      "effectiveGasPrice": "0xb2d05e0d"
    }
  ],
  "libraries": [],
  "pending": [],
  "path": "/home/abims/Desktop/AucDiamond/broadcast/AddFacet.s.sol/11155111/run-latest.json",
  "returns": {},
  "timestamp": 1679686454,
  "chain": 11155111,
  "multi": false,
  "commit": "6a5371e"
}